:100000000C9435000C945D000C945D000C945D0024
:100010000C945D000C945D000C945D000C945D00EC
:100020000C945D000C945D000C945D000C945D00DC
:100030000C945D000C945D000C945D000C945D00CC
:100040000C9441030C945D000C940F030C94E90292
:100050000C945D000C945D000C945D000C945D00AC
:100060000C945D000C945D00F00411241FBECFEFD2
:10007000D8E0DEBFCDBF22E0AEE4B1E001C01D920A
:10008000AC31B207E1F711E0A0E0B1E0E6E0FFE05B
:1000900002C005900D92AE34B107D9F710E0C5E368
:1000A000D0E004C02197FE010E947B07C433D10732
:1000B000C9F70E948B030C9481070C940000AF9247
:1000C000BF92CF92DF92EF92FF920F931F93CF9345
:1000D000DF936C017B018B01040F151FEB015E01A7
:1000E000AE18BF08C017D10759F06991D601ED913C
:1000F000FC910190F081E02DC6010995892B79F7DB
:10010000C501DF91CF911F910F91FF90EF90DF908C
:10011000CF90BF90AF900895FC01538D448D252F53
:1001200030E0842F90E0821B930B541710F0CF9691
:10013000089501970895FC01918D828D981761F0C3
:10014000A28DAE0FBF2FB11D5D968C91928D9F5FDA
:100150009F73928F90E008958FEF9FEF0895FC01B9
:10016000918D828D981731F0828DE80FF11D858D6C
:1001700090E008958FEF9FEF0895FC01918D228DFF
:10018000892F90E0805C9F4F821B91098F73992784
:1001900008958FE791E00E94BD0021E0892B09F4CA
:1001A00020E0822F089580E090E0892B29F00E94C2
:1001B000C90081110C9400000895FC01A48DA80FC2
:1001C000B92FB11DA35ABF4F2C91848D90E0019699
:1001D0008F739927848FA689B7892C93A089B189B9
:1001E0008C91837080648C93938D848D981306C05A
:1001F0000288F389E02D80818F7D80830895EF92BE
:10020000FF920F931F93CF93DF93EC0181E0888FD0
:100210009B8D8C8D98131AC0E889F989808185FFA0
:1002200015C09FB7F894EE89FF896083E889F98942
:1002300080818370806480839FBF81E090E0DF9144
:10024000CF911F910F91FF90EF900895F62E0B8D97
:1002500010E00F5F1F4F0F731127E02E8C8D8E1152
:100260000CC00FB607FCFACFE889F989808185FFB9
:10027000F5CFCE010E94DD00F1CFEB8DEC0FFD2F0D
:10028000F11DE35AFF4FF0829FB7F8940B8FEA8974
:10029000FB8980818062CFCFCF93DF93EC01888D83
:1002A0008823B9F0AA89BB89E889F9898C9185FDF1
:1002B00003C0808186FD0DC00FB607FCF7CF8C917F
:1002C00085FFF2CF808185FFEDCFCE010E94DD005A
:1002D000E9CFDF91CF9108953FB7F89480914F0116
:1002E00090915001A0915101B091520126B5A89B67
:1002F00005C02F3F19F00196A11DB11D3FBFBA2FB8
:10030000A92F982F8827BC01CD01620F711D811D77
:10031000911D42E0660F771F881F991F4A95D1F7FC
:100320000895DC014D915D916D917C911397E0E012
:10033000F1E0408351836283738314964D915D9104
:100340006D917C91179744835583668377831896C4
:100350004D915D916D917C911B974087518762878C
:1003600073871C968D919D910D90BC91A02D8487D3
:100370009587A687B7870895FC0101900020E9F7CB
:100380003197AF01481B590BBC018FE791E00C94EA
:100390005F008F929F92AF92BF920F931F93CF9364
:1003A000DF93CDB7DEB7A1970FB6F894DEBF0FBECF
:1003B000CDBF19A2423008F44AE08E010F5D1F4FF5
:1003C000842E912CB12CA12CA50194010E945907D7
:1003D000E62FB901CA01EA30F4F4E05DD801EE93EA
:1003E0008D01232B242B252B79F790E080E01097AB
:1003F00019F0CD010E94BC01A1960FB6F894DEBFA2
:100400000FBECDBFDF91CF911F910F91BF90AF90E5
:100410009F908F900895E95CE1CF4F925F926F9229
:100420007F928F929F92AF92BF92CF92DF92EF9284
:10043000FF920F931F93CF936B017C01742EAC013D
:100440009B010E945407882399F082E291E0CF91AA
:100450001F910F91FF90EF90DF90CF90BF90AF90E2
:100460009F908F907F906F905F904F900C94BC0105
:1004700046015701E894B7F82FEF3FEF4FE75FE7EA
:10048000C501B4010E94540781110DC02FEF3FEF49
:100490004FE75FE7C501B4010E941D0518161CF463
:1004A00086E291E0D4CF2FEF3FEF4FE75FE4C70143
:1004B000B6010E944F0718161CF48AE291E0C7CFDC
:1004C0002FEF3FEF4FE75FECC701B6010E941D051C
:1004D00087FDF3CF20E030E0A901C701B6010E94FB
:1004E0001D0510E000E087FF0AC06DE28FE791E094
:1004F0000E94FF008C01F7FAF094F7F8F094C0E046
:1005000060E070E080E09FE37C1641F020E030E0A6
:1005100040E251E40E94AE06CF5FF6CFA7019601FC
:100520000E9442062B013C010E9420074B015C0106
:100530004AE00E94C9017C01E00EF11ECC23C1F10A
:10054000C501B4010E9422059B01AC01C301B201A7
:100550000E9441064B015C016EE28FE791E00E9430
:10056000FF00E80EF91EC15018F120E030E040E233
:1005700051E4C501B4010E9483052B013C010E9496
:1005800020074B01B12CA12C4AE0C501B4010E9407
:10059000C901E80EF91EC501B4010E9422059B01A4
:1005A000AC01C301B2010E9441064B015C01DBCFEB
:1005B000C701CF911F910F91FF90EF90DF90CF90E7
:1005C000BF90AF909F908F907F906F905F904F9073
:1005D00008951F920F920FB60F9211242F933F93FD
:1005E0004F935F936F937F938F939F93AF93BF933B
:1005F000EF93FF938FE791E00E94DD00FF91EF9171
:10060000BF91AF919F918F917F916F915F914F912A
:100610003F912F910F900FBE0F901F9018951F9232
:100620000F920FB60F9211242F938F939F93EF93F6
:10063000FF93E0918F01F09190018081E09195010D
:10064000F091960182FD1BC09081809198018F5F8F
:100650008F7320919901821741F0E0919801F0E0A9
:10066000E158FE4F958F80939801FF91EF919F91F4
:100670008F912F910F900FBE0F901F901895808132
:10068000F4CF1F920F920FB60F9211242F933F9326
:100690008F939F93AF93BF93809153019091540197
:1006A000A0915501B091560130914E0123E0230FE6
:1006B0002D3758F50196A11DB11D20934E01809351
:1006C000530190935401A0935501B093560180912A
:1006D0004F0190915001A0915101B09152010196AA
:1006E000A11DB11D80934F0190935001A093510122
:1006F000B0935201BF91AF919F918F913F912F91F4
:100700000F900FBE0F901F90189526E8230F0296AA
:10071000A11DB11DD2CF789484B5826084BD84B50B
:10072000816084BD85B5826085BD85B5816085BDEC
:1007300080916E00816080936E00109281008091A4
:10074000810082608093810080918100816080932C
:100750008100809180008160809380008091B10051
:1007600084608093B1008091B00081608093B0007C
:1007700080917A00846080937A0080917A00826010
:1007800080937A0080917A00816080937A008091D2
:100790007A00806880937A001092C100E0918F0106
:1007A000F091900182E08083E0918B01F0918C01C7
:1007B0001082E0918D01F0918E018FEC8083109278
:1007C0009701E0919301F091940186E08083E0919C
:1007D0009101F0919201808180618083E09191018B
:1007E000F0919201808188608083E0919101F09185
:1007F0009201808180688083E0919101F091920163
:1008000080818F7D80830E946C014B015C0128E810
:10081000C22E23E1D22EE12CF12C0E946C0168192A
:1008200079098A099B09683E734081059105A8F3FF
:1008300021E0C21AD108E108F10888EE880E83E0B1
:10084000981EA11CB11CC114D104E104F10429F7C4
:1008500081E991E090936C0180936B0190E0E92E27
:1008600090E0F92E8FE791E00E94BD00892B09F4FA
:100870005BC08FE791E00E949B00EC018FE791E065
:100880000E949B006C01DD2407E511E0C80187553B
:1008900091408C159D0508F03DC02FB7F8948091CC
:1008A000530190915401A0915501B09156012FBF71
:1008B0008093870190938801A0938901B0938A0166
:1008C0008FE791E00E949B0097FF86C02FB7F894B6
:1008D0008091530190915401A0915501B09156011E
:1008E0002FBF4091870150918801609189017091DB
:1008F0008A01841B950BA60BB70B40918301509185
:100900008401609185017091860184179507A6077F
:10091000B707B0F2DD27CC0FDD1FC559DE4FE881E8
:10092000F98187E591E009958EE291E00E94BC0192
:100930006091000170910101809102019091030189
:1009400042E00E940D0283E391E00E94BC0185E336
:1009500091E00E94BC0160910401709105018091B9
:1009600006019091070142E00E940D0283E391E0AD
:100970000E94BC018AE391E00E94BC0160910801E1
:100980007091090180910A0190910B0142E00E944F
:100990000D0283E391E00E94BC018FE391E00E948D
:1009A000BC0160910C0170910D0180910E0190913C
:1009B0000F0142E00E940D028BE491E00E94BC0115
:1009C000E114F10409F44ECF0E94C900882309F410
:1009D00049CF0E94000046CFF80181938F0156CF86
:1009E000EFE7F1E01382128288EE93E0A0E0B0E03E
:1009F00084839583A683B78384E191E09183808388
:100A000085EC90E09587848784EC90E097878687D3
:100A100080EC90E0918B808B81EC90E0938B828BCB
:100A200082EC90E0958B848B86EC90E0978B868BA4
:100A3000118E128E138E148E08950E945F0508F495
:100A400081E00895E89409C097FB3EF49095809565
:100A5000709561957F4F8F4F9F4F9923A9F0F92F84
:100A600096E9BB279395F695879577956795B79502
:100A7000F111F8CFFAF4BB0F11F460FF1BC06F5FE8
:100A80007F4F8F4F9F4F16C0882311F096E911C0FA
:100A9000772321F09EE8872F762F05C0662371F01B
:100AA00096E8862F70E060E02AF09A95660F771F2F
:100AB000881FDAF7880F9695879597F90895990F0B
:100AC0000008550FAA0BE0E8FEEF16161706E80718
:100AD000F907C0F012161306E407F50798F0621B39
:100AE000730B840B950B39F40A2661F0232B242B0E
:100AF000252B21F408950A2609F4A140A6958FEF2D
:100B0000811D811D08950E9496050C9407060E9480
:100B1000F90538F00E94000620F0952311F00C949E
:100B2000F0050C94F60511240C943B060E9418065F
:100B300070F3959FC1F3950F50E0551F629FF00130
:100B4000729FBB27F00DB11D639FAA27F00DB11D49
:100B5000AA1F649F6627B00DA11D661F829F2227D2
:100B6000B00DA11D621F739FB00DA11D621F839F59
:100B7000A00D611D221F749F3327A00D611D231F2F
:100B8000849F600D211D822F762F6A2F11249F577D
:100B900050409AF0F1F088234AF0EE0FFF1FBB1F80
:100BA000661F771F881F91505040A9F79E3F51053F
:100BB00080F00C94F0050C943B065F3FE4F3983E04
:100BC000D4F3869577956795B795F795E7959F5FE9
:100BD000C1F7FE2B880F911D9695879597F908957B
:100BE00097F99F6780E870E060E008959FEF80ECE0
:100BF000089500240A941616170618060906089583
:100C000000240A9412161306140605060895092EE8
:100C10000394000C11F4882352F0BB0F40F4BF2B57
:100C200011F460FF04C06F5F7F4F8F4F9F4F089597
:100C300057FD9058440F551F59F05F3F71F047958D
:100C4000880F97FB991F61F09F3F79F08795089572
:100C5000121613061406551FF2CF4695F1DF08C091
:100C6000161617061806991FF1CF869571056105AE
:100C700008940895E894BB2766277727CB0197F956
:100C800008955058BB27AA270E9459060C940706BE
:100C90000E94F90538F00E94000620F039F49F3FC9
:100CA00019F426F40C94F6050EF4E095E7FB0C9489
:100CB000F005E92F0E94180658F3BA176207730768
:100CC0008407950720F079F4A6F50C943A060EF403
:100CD000E0950B2EBA2FA02D0B01B90190010C014C
:100CE000CA01A0011124FF27591B99F0593F50F464
:100CF000503E68F11A16F040A22F232F342F4427BC
:100D0000585FF3CF469537952795A795F0405395B3
:100D1000C9F77EF41F16BA0B620B730B840BBAF083
:100D20009150A1F0FF0FBB1F661F771F881FC2F7EE
:100D30000EC0BA0F621F731F841F48F48795779502
:100D40006795B795F7959E3F08F0B0CF9395880FBC
:100D500008F09927EE0F9795879508950E94C2068F
:100D60000C9407060E94000658F00E94F90540F016
:100D700029F45F3F29F00C94F00551110C943B06C7
:100D80000C94F6050E94180668F39923B1F35523D5
:100D900091F3951B550BBB27AA276217730784078E
:100DA00038F09F5F5F4F220F331F441FAA1FA9F324
:100DB00035D00E2E3AF0E0E832D091505040E69512
:100DC000001CCAF72BD0FE2F29D0660F771F881F73
:100DD000BB1F261737074807AB07B0E809F0BB0B66
:100DE000802DBF01FF2793585F4F3AF09E3F51057A
:100DF00078F00C94F0050C943B065F3FE4F3983ECA
:100E0000D4F3869577956795B795F7959F5FC9F762
:100E1000880F911D9695879597F90895E1E0660FE3
:100E2000771F881FBB1F621773078407BA0720F05C
:100E3000621B730B840BBA0BEE1F88F7E0950895C5
:100E40000E94200688F09F5798F0B92F9927B75134
:100E5000B0F0E1F0660F771F881F991F1AF0BA955E
:100E6000C9F714C0B13091F00E943A06B1E008957C
:100E70000C943A06672F782F8827B85F39F0B93F6E
:100E8000CCF3869577956795B395D9F73EF4909511
:100E90008095709561957F4F8F4F9F4F08950E9469
:100EA0005F0508F48FEF08950E945F05880B990B8A
:100EB0000895A1E21A2EAA1BBB1BFD010DC0AA1F9B
:100EC000BB1FEE1FFF1FA217B307E407F50720F0B3
:100ED000A21BB30BE40BF50B661F771F881F991F2E
:100EE0001A9469F760957095809590959B01AC0177
:100EF000BD01CF010895EE0FFF1F0590F491E02D85
:060F00000994F894FFCFF4
:100F06000000003F0000000000000000000000009C
:100F160000000000FF005F008C004C01BD009B003C
:100F2600AF006E616E00696E66006F7666004B708C
:100F36003A20002C004B693A20004B643A2000739B
:0E0F460065745F706F696E743A20000D0A00CA
:00000001FF
