:020000040000FA
:100000000C9462000C946C050C9445050C948A00C9
:100010000C948A000C948A000C948A000C948A0038
:100020000C948A000C948A000C948A000C948A0028
:100030000C948A000C948A000C948A000C948A0018
:100040000C94FB040C948A000C94C9040C94A30433
:100050000C948A000C948A000C948A000C948A00F8
:100060000C948A000C948A000000000023002600F3
:10007000290000000008000201000003040700003E
:1000800000000000000000000000250028002B00F8
:1000900000000000240027002A00040404040404D3
:1000A0000404020202020202030303030303010227
:1000B00004081020408001020408102001020408F6
:1000C0001020930511241FBECFEFD8E0DEBFCDBFB7
:1000D00022E0A6E2B1E001C01D92A430B207E1F730
:1000E00011E0A0E0B1E0E6E0F8E102C005900D9279
:1000F000A632B107D9F710E0C2E6D0E004C02197DC
:10010000FE010E94FB0BC136D107C9F70E941F06F2
:100110000C94010C0C94000090E0FC01E255FF4FA0
:10012000249186569F4FFC018491882399F090E09A
:10013000880F991FFC01E057FF4FA591B491FC0176
:10014000EA57FF4F859194918FB7F894EC91E22B89
:10015000EC938FBF0895AF92BF92CF92DF92EF9250
:10016000FF920F931F93CF93DF936C017B018B0161
:10017000040F151FEB015E01AE18BF08C017D107B1
:1001800059F06991D601ED91FC910190F081E02D3B
:10019000C6010995892B79F7C501DF91CF911F9190
:1001A0000F91FF90EF90DF90CF90BF90AF900895A8
:1001B000FC01538D448D252F30E0842F90E0821B6D
:1001C000930B541710F0CF96089501970895FC01F2
:1001D000918D828D981761F0A28DAE0FBF2FB11D4A
:1001E0005D968C91928D9F5F9F73928F90E00895A2
:1001F0008FEF9FEF0895FC01918D828D981731F05C
:10020000828DE80FF11D858D90E008958FEF9FEFAF
:100210000895FC01918D228D892F90E0805C9F4F85
:10022000821B91098F739927089583E491E00E94BE
:10023000090121E0892B09F420E0822F089580E054
:1002400090E0892B29F00E94150181110C94000087
:100250000895FC01A48DA80FB92FB11DA35ABF4F5B
:100260002C91848D90E001968F739927848FA689B5
:10027000B7892C93A089B1898C91837080648C9309
:10028000938D848D981306C00288F389E02D8081B8
:100290008F7D80830895EF92FF920F931F93CF93EA
:1002A000DF93EC0181E0888F9B8D8C8D98131AC0B1
:1002B000E889F989808185FF15C09FB7F894EE8998
:1002C000FF896083E889F9898081837080648083F5
:1002D0009FBF81E090E0DF91CF911F910F91FF9040
:1002E000EF900895F62E0B8D10E00F5F1F4F0F73E8
:1002F0001127E02E8C8D8E110CC00FB607FCFACFA3
:10030000E889F989808185FFF5CFCE010E94290116
:10031000F1CFEB8DEC0FFD2FF11DE35AFF4FF08273
:100320009FB7F8940B8FEA89FB8980818062CFCFD9
:10033000CF93DF93EC01888D8823B9F0AA89BB891C
:10034000E889F9898C9185FD03C0808186FD0DC007
:100350000FB607FCF7CF8C9185FFF2CF808185FF28
:10036000EDCFCE010E942901E9CFDF91CF91089511
:10037000833081F028F4813099F08230A9F008951B
:100380008730A9F08830C9F08430B1F480918000C2
:100390008F7D03C0809180008F77809380000895C7
:1003A00084B58F7784BD089584B58F7DFBCF809110
:1003B000B0008F778093B00008958091B0008F7D5A
:1003C000F9CF1F93CF93DF93282F30E0F901EE5838
:1003D000FF4F8491F901E255FF4FD491F901E656A0
:1003E000FF4FC491CC23A9F0162F81110E94B801B0
:1003F000EC2FF0E0EE0FFF1FEA57FF4FA591B491ED
:100400008FB7F894EC91111108C0D095DE23DC93DE
:100410008FBFDF91CF911F910895DE2BF8CF1F93EF
:10042000CF93DF93182FEB010E948C00209739F4B3
:1004300060E0812FDF91CF911F910C94E101CF3FBC
:10044000D10511F461E0F5CFE12FF0E0EE58FF4F58
:10045000E491E33031F140F4E130B1F0E230E1F029
:10046000C038D1057CF7E4CFE73029F1E83059F105
:10047000E430B1F780918000806280938000D09357
:100480008B00C0938A0004C084B5806884BDC7BD5A
:10049000DF91CF911F91089584B5806284BDC8BD5E
:1004A000F7CF80918000806880938000D09389008E
:1004B000C0938800EDCF8091B00080688093B00039
:1004C000C093B300E5CF8091B00080628093B0000C
:1004D000C093B400DDCF3FB7F89480912B01909189
:1004E0002C01A0912D01B0912E0126B5A89B05C02D
:1004F0002F3F19F00196A11DB11D3FBFBA2FA92FA3
:10050000982F8827BC01CD01620F711D811D911D9F
:1005100042E0660F771F881F991F4A95D1F708950B
:100520002FB7F894609127017091280180912901DB
:1005300090912A012FBF08950F931F930E9490025C
:1005400060934B0170934C0180934D0190934E0149
:1005500083E491E00E94FB0097FF1DC00E9490027F
:1005600000914B0110914C0120914D0130914E01B1
:10057000601B710B820B930B009147011091480196
:100580002091490130914A01601771078207930752
:10059000F8F28FEF9FEF1F910F91089508958F92BA
:1005A0009F92AF92BF92CF92DF92EF92FF926B0138
:1005B0007C0120E030E0A9010E94B10B181674F410
:1005C0002AE037ED43E25CE3C701B6010E940A0965
:1005D00087FF0EC060E070E0CB0127C02AE037ED56
:1005E00043E25CEBC701B6010E94B10B181694F30D
:1005F00020E030E045E253E4C701B6010E947009F3
:100600004B015C0120E030E0A901C701B6010E9466
:100610000A0920E030E044EB52E487FF0FC0C50137
:10062000B4010E94480A0E94270BFF90EF90DF90D0
:10063000CF90BF90AF909F908F900895C501B40167
:100640000E94490AF0CFCF93DF93E6E7F0E0849170
:10065000E2EBF0E0D491EEE9F0E0C491CC23A1F11B
:1006600081110E94B801EC2FF0E0EE0FFF1FE85956
:10067000FF4FA591B491EC91ED2331F120912F0121
:10068000309130014091310150913201609133013C
:10069000709134018091350190913601A1E00E9462
:1006A000DD0B20932F0130933001409331015093A3
:1006B000320160933301709334018093350190933C
:1006C0003601DF91CF91089520912F0130913001B3
:1006D00040913101509132016091330170913401A8
:1006E0008091350190913601AFEFD9CFFC01019097
:1006F0000020E9F73197AF01481B590BBC0183E497
:1007000091E00C94AB008F929F92AF92BF920F93A7
:100710001F93CF93DF93CDB7DEB7A1970FB6F894B1
:10072000DEBF0FBECDBF19A2423008F44AE08E01F1
:100730000F5D1F4F842E912CB12CA12CA50194018B
:100740000E94BB0BE62FB901CA01EA30F4F4E05D68
:10075000D801EE938D01232B242B252B79F790E0E4
:1007600080E0109719F0CD010E947603A1960FB694
:10077000F894DEBF0FBECDBFDF91CF911F910F91D7
:10078000BF90AF909F908F900895E95CE1CF4F921A
:100790005F926F927F928F929F92AF92BF92CF9211
:1007A000DF92EF92FF920F931F93CF936B017C0127
:1007B000742EAC019B010E94B60B882399F086E150
:1007C00091E0CF911F910F91FF90EF90DF90CF902C
:1007D000BF90AF909F908F907F906F905F904F9061
:1007E0000C94760346015701E894B7F82FEF3FEFDA
:1007F0004FE75FE7C501B4010E94B60B81110DC040
:100800002FEF3FEF4FE75FE7C501B4010E940A09F0
:1008100018161CF48AE191E0D4CF2FEF3FEF4FE799
:100820005FE4C701B6010E94B10B18161CF48EE1FB
:1008300091E0C7CF2FEF3FEF4FE75FECC701B60165
:100840000E940A0987FDF3CF20E030E0A901C7012B
:10085000B6010E940A0910E000E087FF0AC06DE2BD
:1008600083E491E00E944B018C01F7FAF094F7F8D1
:10087000F094C0E060E070E080E09FE37C1641F01F
:1008800020E030E040E251E40E94B50ACF5FF6CFAD
:10089000A70196010E94490A2B013C010E942E0BE0
:1008A0004B015C014AE00E9483037C01E00EF11ED3
:1008B000CC23C1F1C501B4010E940F099B01AC0119
:1008C000C301B2010E94480A4B015C016EE283E45D
:1008D00091E00E944B01E80EF91EC15018F120E092
:1008E00030E040E251E4C501B4010E9470092B01DF
:1008F0003C010E942E0B4B01B12CA12C4AE0C501FA
:10090000B4010E948303E80EF91EC501B4010E94E0
:100910000F099B01AC01C301B2010E94480A4B01BF
:100920005C01DBCFC701CF911F910F91FF90EF903A
:10093000DF90CF90BF90AF909F908F907F906F90FF
:100940005F904F9008951F920F920FB60F9211244F
:100950002F933F934F935F936F937F938F939F93C7
:10096000AF93BF93EF93FF9383E491E00E9429013B
:10097000FF91EF91BF91AF919F918F917F916F9177
:100980005F914F913F912F910F900FBE0F901F904D
:1009900018951F920F920FB60F9211242F938F93D9
:1009A0009F93EF93FF93E0915301F0915401808165
:1009B000E0915901F0915A0182FD1BC09081809114
:1009C0005C018F5F8F7320915D01821741F0E09190
:1009D0005C01F0E0ED5BFE4F958F80935C01FF9131
:1009E000EF919F918F912F910F900FBE0F901F90BD
:1009F00018958081F4CF1F920F920FB60F92112499
:100A00002F933F938F939F93AF93BF938091270131
:100A100090912801A0912901B0912A0130912601DD
:100A200023E0230F2D3758F50196A11DB11D20930A
:100A300026018093270190932801A0932901B09368
:100A40002A0180912B0190912C01A0912D01B09150
:100A50002E010196A11DB11D80932B0190932C01B5
:100A6000A0932D01B0932E01BF91AF919F918F91D3
:100A70003F912F910F900FBE0F901F90189526E871
:100A8000230F0296A11DB11DD2CF1F920F920FB658
:100A90000F9211242F933F934F935F936F937F9304
:100AA0008F939F93AF93BF93EF93FF93E0910201D6
:100AB000F09103010995FF91EF91BF91AF919F9143
:100AC0008F917F916F915F914F913F912F910F90F7
:100AD0000FBE0F901F9018951F920F920FB60F9296
:100AE00011242F933F934F935F936F937F938F9333
:100AF0009F93AF93BF93EF93FF93E0910001F09129
:100B000001010995FF91EF91BF91AF919F918F9155
:100B10007F916F915F914F913F912F910F900FBEF9
:100B20000F901F9018950F931F93CF93DF93E3E4DB
:100B3000F1E01382128288EE93E0A0E0B0E08483BB
:100B40009583A683B78388E091E09183808385ECC9
:100B500090E09587848784EC90E09787868780EC87
:100B600090E0918B808B81EC90E0938B828B82EC78
:100B700090E0958B848B86EC90E0978B868B118E22
:100B8000128E138E148EC4EED1E0188219821A824E
:100B90001B821C821D821E821F82188619861A865D
:100BA0001B861C861D861E861F86188A198A1A8A2D
:100BB0001B8A1C8A1D8A1E8A1F8A188E198E1A8EFD
:100BC0001B8E1C8E1D8E1E8E1F8E0E9490028B010E
:100BD0009C01088B198B8A8B3B8B1C8A1D8A1E8A71
:100BE0001F8AE0EEF1E086E0808389E081838AE07D
:100BF00082838BE0838386E00E948C0089E00E94E0
:100C00008C008AE00E948C008BE00E948C0070E0D7
:100C100060E086E00E940F0270E060E089E00E94E0
:100C20000F0270E060E08AE00E940F0270E060E076
:100C30008BE0DF91CF911F910F910C940F02CF9316
:100C4000DF93CDB7DEB763970FB6F894DEBF0FBE64
:100C5000CDBF789484B5826084BD84B5816084BD45
:100C600085B5826085BD85B5816085BD80916E004A
:100C7000816080936E00109281008091810082607B
:100C800080938100809181008160809381008091B8
:100C900080008160809380008091B10084608093A7
:100CA000B1008091B00081608093B00080917A00A3
:100CB000846080937A0080917A00826080937A00C9
:100CC00080917A00816080937A0080917A008068B8
:100CD00080937A001092C100E0915301F091540189
:100CE00082E08083E0914F01F09150011082E09109
:100CF0005101F09152018FEC808310925B01E091E1
:100D00005701F091580186E08083E0915501F09100
:100D10005601808180618083E0915501F0915601F8
:100D2000808188608083E0915501F0915601808137
:100D300080688083E0915501F091560180818F7D1C
:100D4000808383E293E0909301018093000180917E
:100D50006900836080936900E89A83E491E00E94CF
:100D60000901892B09F499C00E949C02FC0197FD9E
:100D700034C28D32910509F050C0C12CD12C30E81D
:100D8000E32E3FE3F32E412C512C320119821A82BB
:100D9000E130F10561F1ED32F10509F44BC0EE32BD
:100DA000F10509F44AC0CF01C0970A9700F5AAE0FF
:100DB000B0E0A30192010E942E0A2F01FF0F6608E6
:100DC0007708460E571E681E791E00E3401A510828
:100DD000610871081981112351F02DEC3CEC4CECA9
:100DE0005DE3C701B6010E9470096B017C0183E4D9
:100DF00091E00E94E7000E949C02FC01C0970A97C4
:100E000038F2EE32F105E1F40981002309F20A819A
:100E1000002361F10A8109831AC0C0970A9708F478
:100E2000ACCFEE32F10509F4A8CF83E491E00E9443
:100E3000E7009ACF01E00A83DACF11E01983D7CF18
:100E4000E130F10509F4A4CF1A81112341F0709427
:100E5000609450944094411C511C611C711CC3014E
:100E6000B2010E9411091981112341F0C301B2019D
:100E70000E941109A70196010E94700960933F0129
:100E800070934001809341019093420142E00E949F
:100E9000C70382E291E00E947603C0903F01D090A8
:100EA0004001E0904101F090420120E030E040E854
:100EB0005FEBC701B6010E940A0987FD92C120E0DD
:100EC00030E040E85FE3C701B6010E94B10B18169D
:100ED00034F4C12CD12C20E8E22E2FE3F22EC701EE
:100EE000B6010E94CF024B015C0160E070E0CB01D3
:100EF0000E94CF026B017C018091E001B7FC78C1B8
:100F0000B4010E940F0270E060E08091E1010E9454
:100F10000F028091E201F7FC74C1B6010E940F023A
:100F200070E060E08091E3010E940F0220913701A0
:100F30002983309138013A83409139014B83509194
:100F40003A015C8380913B018D8390913C019E83AB
:100F5000E0903D01EF82F0903E01F88620902F0155
:100F60003090300180903101909032010091330136
:100F70000B8B109134011B8720913501298730910B
:100F800036013A872091E4013091E5014091E60174
:100F90005091E7016091E8017091E9018091EA01C7
:100FA0009091EB0151016401780109851A850E9435
:100FB000F20BE1F42091EC013091ED014091EE0152
:100FC0005091EF016091F0017091F1018091F20177
:100FD0009091F301A980BA80CB80DC80ED80FE8007
:100FE0000F8118850E94F20B09F4B7C00E9490028D
:100FF0009B01AC0160E070E080E090E0A090F40123
:10100000B090F501C090F601D090F701E090F801A2
:10101000F090F9010091FA011091FB010E94E90B97
:101020000E945D0B2B013C019101A4016B897B8522
:1010300089859A85A090E401B090E501C090E60111
:10104000D090E701E090E801F090E9010091EA0119
:101050001091EB010E94E90B0E945D0BA30192012C
:101060000E94B50A6093FC017093FD018093FE011C
:101070009093FF0129813A814B815C816D817E8152
:101080008F819885A090EC01B090ED01C090EE01A9
:10109000D090EF01E090F001F090F1010091F201A9
:1010A0001091F3010E94E90B0E945D0BA3019201D4
:1010B0000E94B50A609300027093010280930202BD
:1010C000909303022092E4013092E5018092E601C0
:1010D0009092E7014B894093E8015B855093E901C9
:1010E00089858093EA019A859093EB01E980E092EB
:1010F000EC01FA80F092ED010B810093EE011C816E
:101100001093EF012D812093F0013E813093F10186
:101110004F814093F20158855093F3010E94900251
:101120007B018C0120E030E0A9016B87FC868D8774
:101130001E872F87388B498B5A8B6093F401F0926E
:10114000F5018093F6011093F7011092F8011092C7
:10115000F9011092FA011092FB016091FC0170916B
:10116000FD018091FE019091FF0142E00E94C703C2
:1011700082E291E00E9476030E946B024B015C01C7
:1011800085E0C82ED12CE12CF12C0E946B0268194D
:1011900079098A099B09683E734081059105A8F386
:1011A00001E0C01AD108E108F10818EE810E13E041
:1011B000911EA11CB11CC114D104E104F10429F752
:1011C00040E050E0452B09F4C8CD0E94150188236A
:1011D00009F4C3CD0E940000C0CD60E070E0CB01F7
:1011E0004DCEC12CD12C90E8E92E9FEBF92E77CE75
:1011F00070E060E00E940F0266277727681979097E
:1012000084CE70E060E00E940F02662777276C1999
:101210007D0988CE0E944C0908F481E00895E89485
:1012200009C097FB3EF490958095709561957F4F2E
:101230008F4F9F4F9923A9F0F92F96E9BB279395DC
:10124000F695879577956795B795F111F8CFFAF4EC
:10125000BB0F11F460FF1BC06F5F7F4F8F4F9F4F1D
:1012600016C0882311F096E911C0772321F09EE87B
:10127000872F762F05C0662371F096E8862F70E0E1
:1012800060E02AF09A95660F771F881FDAF7880FBB
:101290009695879597F90895990F0008550FAA0B11
:1012A000E0E8FEEF16161706E807F907C0F0121679
:1012B0001306E407F50798F0621B730B840B950B7C
:1012C00039F40A2661F0232B242B252B21F40895D1
:1012D0000A2609F4A140A6958FEF811D811D08956E
:1012E0000E9483090C94F4090E94E60938F00E94D8
:1012F000ED0920F0952311F00C94DD090C94E3091D
:1013000011240C94280A0E94050A70F3959FC1F3DA
:10131000950F50E0551F629FF001729FBB27F00DA3
:10132000B11D639FAA27F00DB11DAA1F649F6627F8
:10133000B00DA11D661F829F2227B00DA11D621F47
:10134000739FB00DA11D621F839FA00D611D221F01
:10135000749F3327A00D611D231F849F600D211DE5
:10136000822F762F6A2F11249F5750409AF0F1F068
:1013700088234AF0EE0FFF1FBB1F661F771F881FD1
:1013800091505040A9F79E3F510580F00C94DD0923
:101390000C94280A5F3FE4F3983ED4F38695779542
:1013A0006795B795F795E7959F5FC1F7FE2B880F77
:1013B000911D9695879597F9089597F99F6780E80D
:1013C00070E060E008959FEF80EC089500240A9497
:1013D0001616170618060906089500240A94121610
:1013E0001306140605060895092E0394000C11F443
:1013F000882352F0BB0F40F4BF2B11F460FF04C0F0
:101400006F5F7F4F8F4F9F4F089557FD9058440F48
:10141000551F59F05F3F71F04795880F97FB991F53
:1014200061F09F3F79F08795089512161306140610
:10143000551FF2CF4695F1DF08C01616170618069D
:10144000991FF1CF86957105610508940895E89478
:10145000BB2766277727CB0197F908950E94390AA1
:10146000A59F900DB49F900DA49F800D911D1124F8
:101470000895A29FB001B39FC001A39F700D811D6D
:101480001124911DB29F700D811D1124911D08958D
:101490005058BB27AA270E94600A0C94F4090E94A6
:1014A000E60938F00E94ED0920F039F49F3F19F465
:1014B00026F40C94E3090EF4E095E7FB0C94DD09A7
:1014C000E92F0E94050A58F3BA17620773078407C9
:1014D000950720F079F4A6F50C94270A0EF4E09510
:1014E0000B2EBA2FA02D0B01B90190010C01CA01DE
:1014F000A0011124FF27591B99F0593F50F4503E89
:1015000068F11A16F040A22F232F342F4427585F7A
:10151000F3CF469537952795A795F0405395C9F792
:101520007EF41F16BA0B620B730B840BBAF091504A
:10153000A1F0FF0FBB1F661F771F881FC2F70EC0E9
:10154000BA0F621F731F841F48F4879577956795BC
:10155000B795F7959E3F08F0B0CF9395880F08F0A8
:101560009927EE0F9795879508950E94C90A0C94C4
:10157000F4090E94ED0958F00E94E60940F029F4B0
:101580005F3F29F00C94DD0951110C94280A0C944A
:10159000E3090E94050A68F39923B1F3552391F3F7
:1015A000951B550BBB27AA2762177307840738F0D2
:1015B0009F5F5F4F220F331F441FAA1FA9F335D02F
:1015C0000E2E3AF0E0E832D091505040E695001CE3
:1015D000CAF72BD0FE2F29D0660F771F881FBB1F9D
:1015E000261737074807AB07B0E809F0BB0B802D7B
:1015F000BF01FF2793585F4F3AF09E3F510578F0A7
:101600000C94DD090C94280A5F3FE4F3983ED4F370
:10161000869577956795B795F7959F5FC9F7880F7A
:10162000911D9695879597F90895E1E0660F771FCC
:10163000881FBB1F621773078407BA0720F0621B5D
:10164000730B840BBA0BEE1F88F7E09508950E9488
:101650002E0B6894B1110C94280A08950E940D0A6B
:1016600088F09F5798F0B92F9927B751B0F0E1F063
:10167000660F771F881F991F1AF0BA95C9F714C013
:10168000B13091F00E94270AB1E008950C94270A26
:10169000672F782F8827B85F39F0B93FCCF386954C
:1016A00077956795B395D9F73EF4909580957095A9
:1016B00061957F4F8F4F9F4F089597FB16F40E94BF
:1016C000A10B0C94640BE894F92F96EBFF2381F0A7
:1016D000121613061406440B9395F6958795779585
:1016E000679557954040FF23B9F71BC09927089588
:1016F000882351F49850D2F7872B762F652F542FDB
:10170000432F322F20E0B1F3121613061406440BB8
:1017100088233AF09A95440F551F661F771F881F3C
:10172000CAF755234AF4440F551F11F460FF04C053
:101730006F5F7F4F8F4F9F4F880F9695879597F9D3
:101740000895909580957095609550954095309549
:1017500021953F4F4F4F5F4F6F4F7F4F8F4F9F4FA1
:1017600008950E944C0908F48FEF08950E944C09D7
:10177000880B990B0895A1E21A2EAA1BBB1BFD0131
:101780000DC0AA1FBB1FEE1FFF1FA217B307E40760
:10179000F50720F0A21BB30BE40BF50B661F771FB8
:1017A000881F991F1A9469F7609570958095909598
:1017B0009B01AC01BD01CF0108950024A7FD009459
:1017C0002A0F301D401D501D601D701D801D901D75
:1017D00008952A193B094C095D096E097F09800BA0
:1017E000910B08952A153B054C055D056E057F0597
:1017F000800791070895EE0FFF1F0590F491E02DEB
:101800000994F894FFCFCE02CE02000000004B01F5
:10181000AB00D80098010901E700FB006E616E0083
:0C182000696E66006F7666000D0A00001D
:107E0000112484B714BE81FFF0D085E080938100F7
:107E100082E08093C00088E18093C10086E0809377
:107E2000C20080E18093C4008EE0C9D0259A86E02C
:107E300020E33CEF91E0309385002093840096BBD3
:107E4000B09BFECF1D9AA8958150A9F7CC24DD24C4
:107E500088248394B5E0AB2EA1E19A2EF3E0BF2EE7
:107E6000A2D0813461F49FD0082FAFD0023811F036
:107E7000013811F484E001C083E08DD089C08234E0
:107E800011F484E103C0853419F485E0A6D080C0E4
:107E9000853579F488D0E82EFF2485D0082F10E0AE
:107EA000102F00270E291F29000F111F8ED06801E7
:107EB0006FC0863521F484E090D080E0DECF843638
:107EC00009F040C070D06FD0082F6DD080E0C81688
:107ED00080E7D80618F4F601B7BEE895C0E0D1E017
:107EE00062D089930C17E1F7F0E0CF16F0E7DF06D8
:107EF00018F0F601B7BEE89568D007B600FCFDCFD4
:107F0000A601A0E0B1E02C9130E011968C91119780
:107F100090E0982F8827822B932B1296FA010C0160
:107F200087BEE89511244E5F5F4FF1E0A038BF0790
:107F300051F7F601A7BEE89507B600FCFDCF97BE46
:107F4000E89526C08437B1F42ED02DD0F82E2BD052
:107F50003CD0F601EF2C8F010F5F1F4F84911BD097
:107F6000EA94F801C1F70894C11CD11CFA94CF0C13
:107F7000D11C0EC0853739F428D08EE10CD085E9AC
:107F80000AD08FE07ACF813511F488E018D01DD067
:107F900080E101D065CF982F8091C00085FFFCCF94
:107FA0009093C60008958091C00087FFFCCF809118
:107FB000C00084FD01C0A8958091C6000895E0E648
:107FC000F0E098E1908380830895EDDF803219F02E
:107FD00088E0F5DFFFCF84E1DECF1F93182FE3DFCA
:107FE0001150E9F7F2DF1F91089580E0E8DFEE27F6
:047FF000FF270994CA
:027FFE00040479
:00000001FF
