:020000040000FA
:100000000C945D000C9485000C9485000C94850084
:100010000C9485000C9485000C9485000C9485004C
:100020000C9485000C9485000C9485000C9485003C
:100030000C9485000C9485000C9485000C9485002C
:100040000C9471010C9485000C9485000C9485002F
:100050000C9485000C9485000C9485000C9485000C
:100060000C9485000C9485000000000024002700FB
:100070002A0000000000250028002B0004040404CE
:100080000404040402020202020203030303030342
:10009000010204081020408001020408102001021F
:1000A00004081020000000080002010000030407FB
:1000B0000000000000000000250311241FBECFEF48
:1000C000D8E0DEBFCDBF11E0A0E0B1E0E2ECFAE0A5
:1000D00002C005900D92AE30B107D9F721E0AEE035
:1000E000B1E001C01D92AB36B207E1F710E0CDE5FB
:1000F000D0E004C02197FE010E945905CC35D107FC
:10010000C9F70E94BB010C945F050C94000090E0BD
:10011000FC01EC55FF4F2491FC01E057FF4F349157
:10012000FC01E458FF4FE491EE23C9F0222339F09B
:10013000233001F1A8F4213019F1223029F1F0E047
:10014000EE0FFF1FEE58FF4FA591B4918FB7F894B3
:10015000EC91611126C030953E233C938FBF0895EA
:100160002730A9F02830C9F0243049F78091800069
:100170008F7D03C0809180008F7780938000DFCFD8
:1001800084B58F7784BDDBCF84B58F7DFBCF809125
:10019000B0008F778093B000D2CF8091B0008F7D78
:1001A000F9CF3E2BDACFCF93DF9390E0FC01E057FD
:1001B000FF4F249184589F4FFC0184918823D1F0F4
:1001C00090E0880F991FFC01E859FF4FA591B49169
:1001D000FC01EE58FF4FC591D49161110EC09FB73D
:1001E000F8948C91E22FE0958E238C932881E22362
:1001F000E8839FBFDF91CF9108958FB7F894EC917A
:10020000E22BEC938FBFF6CF8E3008F08E508770C4
:10021000806480937C0080917A00806480937A006F
:1002200080917A0086FDFCCF8091780090917900D2
:1002300008953FB7F8948091130190911401A09113
:100240001501B091160126B5A89B05C02F3F19F0E6
:100250000196A11DB11D3FBFBA2FA92F982F882746
:10026000BC01CD01620F711D811D911D42E0660F21
:10027000771F881F991F4A95D1F708958F929F92F3
:10028000AF92BF92CF92DF92EF92FF926B017C010F
:100290000E9419014B015C01C114D104E104F10475
:1002A000B9F00E941901681979098A099B09683E09
:1002B00073408105910580F321E0C21AD108E1085D
:1002C000F10888EE880E83E0981EA11CB11CE4CFD3
:1002D000FF90EF90DF90CF90BF90AF909F908F9066
:1002E00008951F920F920FB60F9211242F933F93F0
:1002F0008F939F93AF93BF9380910F0190911001C3
:10030000A0911101B091120130910E0123E0230F51
:100310002D3758F50196A11DB11D20930E01809334
:100320000F0190931001A0931101B09312018091DD
:10033000130190911401A0911501B091160101963D
:10034000A11DB11D8093130190931401A093150179
:10035000B0931601BF91AF919F918F913F912F91D3
:100360000F900FBE0F901F90189526E8230F02964E
:10037000A11DB11DD2CFCF93DF93CDB7DEB7A0972C
:100380000FB6F894DEBF0FBECDBF789484B58260FF
:1003900084BD84B5816084BD85B5826085BD85B529
:1003A000816085BD80916E00816080936E001092A7
:1003B0008100809181008260809381008091810022
:1003C00081608093810080918000816080938000B3
:1003D0008091B10084608093B1008091B000816011
:1003E0008093B00080917A00846080937A0080913D
:1003F0007A00826080937A0080917A008160809395
:100400007A0080917A00806880937A001092C1000F
:1004100007E011E060E0F80181918F010E94D300B4
:10042000F1E00E301F07B1F700E011E061E0F801E4
:1004300081918F010E94D300F1E007301F07B1F7CF
:1004400000E011E060E0F80181918F010E948700D7
:10045000F1E007301F07B1F768EE73E080E090E04D
:100460000E943E0161E08DE00E94D300912C812C1E
:10047000CE0101965C01FE017D96FE8FED8F62E05C
:1004800070E080E090E00E943E01F5012CE11192C5
:100490002A95E9F710E000E0B8A2AF8E750147E0B9
:1004A000C42E41E0D42EF60181916F010E94040117
:1004B000F70141905190619071907F011F01F4E02C
:1004C0002F1A3108BC01990F880B990B0E94370431
:1004D000A30192010E945203F10160837183828320
:1004E0009383FEE0CF16F1E0DF06E9F60F5F1F4FC2
:1004F0000431110589F68501F801619171918191AD
:1005000091918F017F01F4E0EF1AF10820E030E0D3
:1005100040EA51E40E94C303F70160837183828340
:1005200093838D8D9E8D0817190731F737E1232EA0
:1005300031E0332E8101F801C080D180E280F38068
:10054000EF8DF8A14190519061907190F8A3EF8FD9
:10055000A3019201C701B6010E94E704181614F026
:1005600073016201F801C192D192E192F1928F017F
:10057000A7019601C301B2010E94E704181614F006
:1005800073016201F801C08ED18EE28EF38EF1E02C
:1005900003331F0781F62FEF821A920A88EE88161E
:1005A00083E0980609F06BCFF1016191719181911F
:1005B00091911F01208D318D428D538D0E945203E8
:1005C00020E030E040E05FE30E94EC04F10164AB26
:1005D00075AB86AB97AB0215130531F720E0A22E61
:1005E00020E0B22E8FE4C82E81E0D82E90E0E92ED4
:1005F00091E0F92E07E011E0F80181918F010E944E
:100600000401F60141905190619071906F01F701E2
:1006100091907F01BC01990F880B990B0E943704C0
:10062000A30192010E94BE03682F661F6627661F02
:10063000892D0E948700F1E00E301F07E9F6A11412
:10064000B10481F20E940000CDCFCF93DF9388E107
:10065000EBE1F1E0DF01C82F1D92CA95E9F7E7E170
:10066000F1E040E050E060E87FEB4083518362833B
:100670007383A7E3B1E0ED0119928A95E9F780E071
:1006800090E0AAE7B4E4848F958FA68FB78FEFE44C
:10069000F1E08CE1DF011D928A95E9F7DF91CF91BE
:1006A00008955058BB27AA270E9469030C94AD04F3
:1006B0000E949F0438F00E94A60420F039F49F3F66
:1006C00019F426F40C949C040EF4E095E7FB0C94CA
:1006D0009604E92F0E94BE0458F3BA176207730705
:1006E0008407950720F079F4A6F50C94E0040EF445
:1006F000E0950B2EBA2FA02D0B01B90190010C0132
:10070000CA01A0011124FF27591B99F0593F50F449
:10071000503E68F11A16F040A22F232F342F4427A1
:10072000585FF3CF469537952795A795F040539599
:10073000C9F77EF41F16BA0B620B730B840BBAF069
:100740009150A1F0FF0FBB1F661F771F881FC2F7D4
:100750000EC0BA0F621F731F841F48F487957795E8
:100760006795B795F7959E3F08F0B0CF9395880FA2
:1007700008F09927EE0F9795879508950E947204C7
:1007800008F481E008950E94D7030C94AD040E9400
:10079000A60458F00E949F0440F029F45F3F29F01E
:1007A0000C94960451110C94E1040C949C040E9446
:1007B000BE0468F39923B1F3552391F3951B550BB0
:1007C000BB27AA2762177307840738F09F5F5F4F24
:1007D000220F331F441FAA1FA9F335D00E2E3AF063
:1007E000E0E832D091505040E695001CCAF72BD07B
:1007F000FE2F29D0660F771F881FBB1F26173707CC
:100800004807AB07B0E809F0BB0B802DBF01FF27FD
:1008100093585F4F3AF09E3F510578F00C94960440
:100820000C94E1045F3FE4F3983ED4F3869577950A
:100830006795B795F7959F5FC9F7880F911D9695B6
:10084000879597F90895E1E0660F771F881FBB1F12
:10085000621773078407BA0720F0621B730B840BBF
:10086000BA0BEE1F88F7E0950895E89409C097FB4E
:100870003EF490958095709561957F4F8F4F9F4F77
:100880009923A9F0F92F96E9BB279395F6958795BB
:1008900077956795B795F111F8CFFAF4BB0F11F47E
:1008A00060FF1BC06F5F7F4F8F4F9F4F16C0882325
:1008B00011F096E911C0772321F09EE8872F762F5B
:1008C00005C0662371F096E8862F70E060E02AF09C
:1008D0009A95660F771F881FDAF7880F9695879588
:1008E00097F90895990F0008550FAA0BE0E8FEEF5D
:1008F00016161706E807F907C0F012161306E407E4
:10090000F50798F0621B730B840B950B39F40A26DC
:1009100061F0232B242B252B21F408950A2609F4BA
:10092000A140A6958FEF811D811D089597F99F67BE
:1009300080E870E060E008959FEF80EC0895002467
:100940000A941616170618060906089500240A9434
:1009500012161306140605060895092E0394000CBA
:1009600011F4882352F0BB0F40F4BF2B11F460FF49
:1009700004C06F5F7F4F8F4F9F4F089557FD905872
:10098000440F551F59F05F3F71F04795880F97FB53
:10099000991F61F09F3F79F087950895121613060D
:1009A0001406551FF2CF4695F1DF08C0161617063C
:1009B0001806991FF1CF8695710561050894089571
:1009C000E894BB2766277727CB0197F908950E9403
:1009D000720408F48FEF08950E94FF040C94AD0494
:1009E0000E949F0438F00E94A60420F0952311F085
:1009F0000C9496040C949C0411240C94E1040E9421
:100A0000BE0470F3959FC1F3950F50E0551F629F90
:100A1000F001729FBB27F00DB11D639FAA27F00D57
:100A2000B11DAA1F649F6627B00DA11D661F829F7E
:100A30002227B00DA11D621F739FB00DA11D621F63
:100A4000839FA00D611D221F749F3327A00D611D80
:100A5000231F849F600D211D822F762F6A2F112462
:100A60009F5750409AF0F1F088234AF0EE0FFF1F95
:100A7000BB1F661F771F881F91505040A9F79E3FEC
:100A8000510580F00C9496040C94E1045F3FE4F36C
:100A9000983ED4F3869577956795B795F795E79542
:100AA0009F5FC1F7FE2B880F911D9695879597F94B
:100AB0000895EE0FFF1F0590F491E02D0994F8942E
:100AC000FFCF0405060708090A0E0F1011121314B0
:107800000C94343C0C94513C0C94513C0C94513CE1
:107810000C94513C0C94513C0C94513C0C94513CB4
:107820000C94513C0C94513C0C94513C0C94513CA4
:107830000C94513C0C94513C0C94513C0C94513C94
:107840000C94513C0C94513C0C94513C0C94513C84
:107850000C94513C0C94513C0C94513C0C94513C74
:107860000C94513C0C94513C11241FBECFEFD8E036
:10787000DEBFCDBF11E0A0E0B1E0ECE9FFE702C060
:1078800005900D92A230B107D9F712E0A2E0B1E065
:1078900001C01D92AD30B107E1F70E942D3D0C945F
:1078A000CC3F0C94003C982F959595959595959582
:1078B000905D8F708A307CF0282F295A8091C0000B
:1078C00085FFFCCF9093C6008091C00085FFFCCF60
:1078D0002093C6000895282F205DF0CF982F809127
:1078E000C00085FFFCCF9093C6000895EF92FF92F1
:1078F0000F931F93EE24FF2487018091C00087FD22
:1079000017C00894E11CF11C011D111D81E4E8164B
:1079100082E4F8068FE0080780E0180770F3E09132
:107920000401F091050109958091C00087FFE9CF1E
:107930008091C6001F910F91FF90EF9008950E94D3
:10794000763C982F8091C00085FFFCCF9093C600B5
:1079500091362CF490330CF09053892F089597555D
:10796000892F08951F930E949F3C182F0E949F3CCF
:107970001295107F810F1F9108951F93182F882350
:1079800021F00E94763C1150E1F71F9108951F935A
:10799000182F0E94763C803249F0809103018F5F5E
:1079A000809303018530C1F01F9108958091C0003C
:1079B00085FFFCCF84E18093C6008091C00085FFE5
:1079C000FCCF1093C6008091C00085FFFCCF80E102
:1079D0008093C6001F910895E0910401F091050184
:1079E00009951F9108950E94763C803241F0809164
:1079F00003018F5F80930301853081F008958091AA
:107A0000C00085FFFCCF84E18093C6008091C00058
:107A100085FFFCCF80E18093C6000895E0910401CA
:107A2000F09105010995089540E951E08823A1F0FE
:107A30002D9A28EE33E0FA013197F1F721503040CA
:107A4000D1F72D9828EE33E0FA013197F1F7215064
:107A50003040D1F7815061F708953F924F925F9285
:107A60006F927F928F929F92AF92BF92CF92DF924E
:107A7000EF92FF920F931F93CF93DF93000080E16B
:107A80008093C4001092C50088E18093C10086E015
:107A90008093C2005098589A259A81E00E94143D24
:107AA00024E1F22E9EE1E92E85E9D82E0FE0C02ECA
:107AB00010E1B12EAA24A394B1E49B2EA6E58A2E50
:107AC000F2E57F2EE0E26E2E79E4572E63E5462E36
:107AD00050E5352E0E94763C8033B1F18133B9F107
:107AE000803409F46FC0813409F476C0823409F41B
:107AF00085C0853409F488C0803531F1823521F1A3
:107B0000813511F1853509F485C0863509F48DC0BC
:107B1000843609F496C0843709F403C1853709F423
:107B200072C1863709F466C0809103018F5F80932C
:107B30000301853079F6E0910401F0910501099582
:107B40000E94763C803351F60E94F33CC3CF0E94E2
:107B5000763C803249F78091C00085FFFCCFF092DF
:107B6000C6008091C00085FFFCCF9092C600809136
:107B7000C00085FFFCCF8092C6008091C00085FFC9
:107B8000FCCF7092C6008091C00085FFFCCF609250
:107B9000C6008091C00085FFFCCF5092C600809146
:107BA000C00085FFFCCF4092C6008091C00085FFD9
:107BB000FCCF3092C6008091C00085FFFCCFB09210
:107BC000C60088CF0E94763C863808F4BDCF0E945C
:107BD000763C0E94F33C7ECF0E94763C803809F4CC
:107BE0009CC0813809F40BC1823809F43CC1883942
:107BF00009F48FC080E00E94C73C6CCF84E10E94F2
:107C0000BD3C0E94F33C66CF85E00E94BD3C0E94D3
:107C1000F33C60CF0E94763C809306010E94763C44
:107C2000809307010E94F33C55CF0E94763C80333D
:107C300009F41DC183E00E94BD3C80E00E94C73C66
:107C400049CF0E94763C809309020E94763C809343
:107C5000080280910C028E7F80930C020E94763C79
:107C6000853409F415C18091080290910902892B8D
:107C700089F000E010E00E94763CF801E85FFE4FDA
:107C800080830F5F1F4F80910802909109020817AF
:107C9000190788F30E94763C803209F045CF809125
:107CA0000C0280FF01C16091060170910701660F0F
:107CB000771F7093070160930601A0910802B091AD
:107CC00009021097C9F0E8E0F1E09B01AD014E0F09
:107CD0005F1FF999FECF32BD21BD819180BDFA9A17
:107CE000F99A2F5F3F4FE417F50799F76A0F7B1F4B
:107CF00070930701609306018091C00085FFFCCF5F
:107D0000F092C6008091C00085FFFCCFB092C60003
:107D1000E1CE83E00E94C73CDDCE82E00E94C73CFA
:107D2000D9CE0E94763C809309020E94763C8093D3
:107D300008028091060190910701880F991F909386
:107D40000701809306010E94763C853409F4A6C0A1
:107D500080910C028E7F80930C020E94763C8032D0
:107D600009F0B8CE8091C00085FFFCCFF092C6002C
:107D7000609108027091090261157105B9F140E046
:107D800050E080910C02A82FA170B82FB27011C0E2
:107D9000BB2309F45CC0E0910601F0910701319624
:107DA000F0930701E09306014F5F5F4F46175707B7
:107DB000E8F4AA2369F3F999FECF209106013091E6
:107DC000070132BD21BDF89A90B58091C00085FFB2
:107DD000FCCF9093C6002F5F3F4F30930701209355
:107DE00006014F5F5F4F4617570718F38091C00099
:107DF00085FDE5CE8091C00085FFF8CFE0CE81E023
:107E00000E94C73C67CE0E94763C803209F08CCE3F
:107E10008091C00085FFFCCFF092C6008091C00029
:107E200085FFFCCFE092C6008091C00085FFFCCFAB
:107E3000D092C6008091C00085FFFCCFC092C600E2
:107E40008091C00085FFFCCFB092C60043CEE09188
:107E50000601F091070194918091C00085FFFCCF4D
:107E60009093C6009CCF80E10E94C73C33CE0E9415
:107E7000763C0E94763C182F0E94763C112309F430
:107E800083C0113009F484C08FE00E94C73C22CE29
:107E900080910C02816080930C02E5CE80910C02EF
:107EA000816080930C0259CF809107018823880F4D
:107EB000880B8A2180930B02809106019091070123
:107EC000880F991F90930701809306018091080203
:107ED00080FF09C080910802909109020196909359
:107EE000090280930802F894F999FECF1127E091D6
:107EF0000601F0910701C8E0D1E08091080290915D
:107F00000902103091F40091570001700130D9F34B
:107F100003E000935700E89500915700017001308D
:107F2000D9F301E100935700E89509901990009169
:107F3000570001700130D9F301E000935700E89534
:107F40001395103498F011270091570001700130FB
:107F5000D9F305E000935700E895009157000170B0
:107F60000130D9F301E100935700E895329602976A
:107F700009F0C7CF103011F00296E5CF112480919F
:107F8000C00085FFB9CEBCCE8EE10E94C73CA2CD19
:0E7F900085E90E94C73C9ECDF894FFCF80008B
:00000001FF
